{
  "_format": "hh-sol-artifact-1",
  "contractName": "WarehouseRental",
  "sourceName": "contracts/WarehouseRental.sol",
  "abi": [
    {
      "anonymous": false,
      "inputs": [
        {
          "indexed": true,
          "internalType": "uint256",
          "name": "warehouseId",
          "type": "uint256"
        },
        {
          "indexed": true,
          "internalType": "address",
          "name": "owner",
          "type": "address"
        },
        {
          "indexed": true,
          "internalType": "address",
          "name": "renter",
          "type": "address"
        },
        {
          "indexed": false,
          "internalType": "uint256",
          "name": "pricePaid",
          "type": "uint256"
        },
        {
          "indexed": false,
          "internalType": "uint256",
          "name": "depositAmount",
          "type": "uint256"
        },
        {
          "indexed": false,
          "internalType": "uint256",
          "name": "endTime",
          "type": "uint256"
        }
      ],
      "name": "LeaseEnded",
      "type": "event"
    },
    {
      "anonymous": false,
      "inputs": [
        {
          "indexed": true,
          "internalType": "uint256",
          "name": "warehouseId",
          "type": "uint256"
        },
        {
          "indexed": true,
          "internalType": "address",
          "name": "to",
          "type": "address"
        },
        {
          "indexed": false,
          "internalType": "uint256",
          "name": "amount",
          "type": "uint256"
        }
      ],
      "name": "RefundIssued",
      "type": "event"
    },
    {
      "anonymous": false,
      "inputs": [
        {
          "indexed": true,
          "internalType": "uint256",
          "name": "warehouseId",
          "type": "uint256"
        },
        {
          "indexed": true,
          "internalType": "address",
          "name": "renter",
          "type": "address"
        },
        {
          "indexed": false,
          "internalType": "uint256",
          "name": "pricePaid",
          "type": "uint256"
        },
        {
          "indexed": false,
          "internalType": "uint256",
          "name": "depositAmount",
          "type": "uint256"
        },
        {
          "indexed": false,
          "internalType": "uint256",
          "name": "startTime",
          "type": "uint256"
        },
        {
          "indexed": false,
          "internalType": "uint256",
          "name": "durationDays",
          "type": "uint256"
        }
      ],
      "name": "Rented",
      "type": "event"
    },
    {
      "anonymous": false,
      "inputs": [
        {
          "indexed": true,
          "internalType": "uint256",
          "name": "warehouseId",
          "type": "uint256"
        },
        {
          "indexed": true,
          "internalType": "address",
          "name": "owner",
          "type": "address"
        },
        {
          "indexed": false,
          "internalType": "uint256",
          "name": "pricePerDay",
          "type": "uint256"
        },
        {
          "indexed": false,
          "internalType": "uint256",
          "name": "deposit",
          "type": "uint256"
        }
      ],
      "name": "WarehouseRegistered",
      "type": "event"
    },
    {
      "anonymous": false,
      "inputs": [
        {
          "indexed": true,
          "internalType": "uint256",
          "name": "warehouseId",
          "type": "uint256"
        },
        {
          "indexed": true,
          "internalType": "address",
          "name": "owner",
          "type": "address"
        },
        {
          "indexed": false,
          "internalType": "uint256",
          "name": "pricePerDay",
          "type": "uint256"
        },
        {
          "indexed": false,
          "internalType": "uint256",
          "name": "deposit",
          "type": "uint256"
        }
      ],
      "name": "WarehouseUpdated",
      "type": "event"
    },
    {
      "inputs": [
        {
          "internalType": "uint256",
          "name": "warehouseId",
          "type": "uint256"
        }
      ],
      "name": "endLease",
      "outputs": [],
      "stateMutability": "nonpayable",
      "type": "function"
    },
    {
      "inputs": [
        {
          "internalType": "uint256",
          "name": "warehouseId",
          "type": "uint256"
        }
      ],
      "name": "getRental",
      "outputs": [
        {
          "internalType": "address",
          "name": "renter",
          "type": "address"
        },
        {
          "internalType": "uint256",
          "name": "pricePaid",
          "type": "uint256"
        },
        {
          "internalType": "uint256",
          "name": "depositAmount",
          "type": "uint256"
        },
        {
          "internalType": "uint256",
          "name": "startTime",
          "type": "uint256"
        },
        {
          "internalType": "uint256",
          "name": "durationDays",
          "type": "uint256"
        },
        {
          "internalType": "bool",
          "name": "active",
          "type": "bool"
        }
      ],
      "stateMutability": "view",
      "type": "function"
    },
    {
      "inputs": [
        {
          "internalType": "uint256",
          "name": "warehouseId",
          "type": "uint256"
        }
      ],
      "name": "getWarehouse",
      "outputs": [
        {
          "internalType": "address",
          "name": "owner",
          "type": "address"
        },
        {
          "internalType": "uint256",
          "name": "pricePerDay",
          "type": "uint256"
        },
        {
          "internalType": "uint256",
          "name": "deposit",
          "type": "uint256"
        },
        {
          "internalType": "bool",
          "name": "exists",
          "type": "bool"
        }
      ],
      "stateMutability": "view",
      "type": "function"
    },
    {
      "inputs": [
        {
          "internalType": "uint256",
          "name": "warehouseId",
          "type": "uint256"
        },
        {
          "internalType": "uint256",
          "name": "pricePerDay",
          "type": "uint256"
        },
        {
          "internalType": "uint256",
          "name": "deposit",
          "type": "uint256"
        }
      ],
      "name": "registerWarehouse",
      "outputs": [],
      "stateMutability": "nonpayable",
      "type": "function"
    },
    {
      "inputs": [
        {
          "internalType": "uint256",
          "name": "warehouseId",
          "type": "uint256"
        },
        {
          "internalType": "uint256",
          "name": "durationDays",
          "type": "uint256"
        }
      ],
      "name": "rent",
      "outputs": [],
      "stateMutability": "payable",
      "type": "function"
    },
    {
      "inputs": [
        {
          "internalType": "uint256",
          "name": "",
          "type": "uint256"
        }
      ],
      "name": "rentals",
      "outputs": [
        {
          "internalType": "address",
          "name": "renter",
          "type": "address"
        },
        {
          "internalType": "uint256",
          "name": "pricePaid",
          "type": "uint256"
        },
        {
          "internalType": "uint256",
          "name": "depositAmount",
          "type": "uint256"
        },
        {
          "internalType": "uint256",
          "name": "startTime",
          "type": "uint256"
        },
        {
          "internalType": "uint256",
          "name": "durationDays",
          "type": "uint256"
        },
        {
          "internalType": "bool",
          "name": "active",
          "type": "bool"
        }
      ],
      "stateMutability": "view",
      "type": "function"
    },
    {
      "inputs": [
        {
          "internalType": "uint256",
          "name": "warehouseId",
          "type": "uint256"
        }
      ],
      "name": "timeLeft",
      "outputs": [
        {
          "internalType": "uint256",
          "name": "",
          "type": "uint256"
        }
      ],
      "stateMutability": "view",
      "type": "function"
    },
    {
      "inputs": [
        {
          "internalType": "uint256",
          "name": "warehouseId",
          "type": "uint256"
        },
        {
          "internalType": "uint256",
          "name": "pricePerDay",
          "type": "uint256"
        },
        {
          "internalType": "uint256",
          "name": "deposit",
          "type": "uint256"
        }
      ],
      "name": "updatePricing",
      "outputs": [],
      "stateMutability": "nonpayable",
      "type": "function"
    },
    {
      "inputs": [
        {
          "internalType": "uint256",
          "name": "",
          "type": "uint256"
        }
      ],
      "name": "warehouses",
      "outputs": [
        {
          "internalType": "address",
          "name": "owner",
          "type": "address"
        },
        {
          "internalType": "uint256",
          "name": "pricePerDay",
          "type": "uint256"
        },
        {
          "internalType": "uint256",
          "name": "deposit",
          "type": "uint256"
        },
        {
          "internalType": "bool",
          "name": "exists",
          "type": "bool"
        }
      ],
      "stateMutability": "view",
      "type": "function"
    }
  ],
  "bytecode": "0x608060405234801561001057600080fd5b506117ce806100206000396000f3fe6080604052600436106100865760003560e01c8063783a112b11610059578063783a112b1461015c57806383c30fa01461017857806391ef935c146101b8578063a81d34e5146101e1578063af94a1d11461022157610086565b80630b3f89521461008b57806347cb7a68146100b45780634a32ff8b146100f1578063652bd29e1461011a575b600080fd5b34801561009757600080fd5b506100b260048036038101906100ad9190610f9f565b610263565b005b3480156100c057600080fd5b506100db60048036038101906100d69190610ff2565b610453565b6040516100e8919061102e565b60405180910390f35b3480156100fd57600080fd5b5061011860048036038101906101139190610f9f565b6104d9565b005b34801561012657600080fd5b50610141600480360381019061013c9190610ff2565b61063b565b604051610153969594939291906110a5565b60405180910390f35b61017660048036038101906101719190611106565b6106bc565b005b34801561018457600080fd5b5061019f600480360381019061019a9190610ff2565b6109ac565b6040516101af9493929190611146565b60405180910390f35b3480156101c457600080fd5b506101df60048036038101906101da9190610ff2565b610a09565b005b3480156101ed57600080fd5b5061020860048036038101906102039190610ff2565b610e8e565b6040516102189493929190611146565b60405180910390f35b34801561022d57600080fd5b5061024860048036038101906102439190610ff2565b610efb565b60405161025a969594939291906110a5565b60405180910390f35b600080600085815260200190815260200160002090508060030160009054906101000a900460ff1661035757338160000160006101000a81548173ffffffffffffffffffffffffffffffffffffffff021916908373ffffffffffffffffffffffffffffffffffffffff16021790555082816001018190555081816002018190555060018160030160006101000a81548160ff0219169083151502179055503373ffffffffffffffffffffffffffffffffffffffff16847f9e1cee1e2ee5735f38fe1d5db6df1f9cea0c84ca6a7cf21fe1eb8bb70df9d4e5858560405161034a92919061118b565b60405180910390a361044d565b3373ffffffffffffffffffffffffffffffffffffffff168160000160009054906101000a900473ffffffffffffffffffffffffffffffffffffffff1673ffffffffffffffffffffffffffffffffffffffff16146103e9576040517f08c379a00000000000000000000000000000000000000000000000000000000081526004016103e090611211565b60405180910390fd5b8281600101819055508181600201819055503373ffffffffffffffffffffffffffffffffffffffff16847ffb7a2bfac98651d9cf07095e3384ab98279d7c7be39f2906497d0f1598cf653c858560405161044492919061118b565b60405180910390a35b50505050565b6000806001600084815260200190815260200160002090508060050160009054906101000a900460ff1661048b5760009150506104d4565b60006201518082600401546104a09190611260565b82600301546104af91906112a2565b90508042106104c3576000925050506104d4565b42816104cf91906112d6565b925050505b919050565b600080600085815260200190815260200160002090508060030160009054906101000a900460ff16610540576040517f08c379a000000000000000000000000000000000000000000000000000000000815260040161053790611356565b60405180910390fd5b3373ffffffffffffffffffffffffffffffffffffffff168160000160009054906101000a900473ffffffffffffffffffffffffffffffffffffffff1673ffffffffffffffffffffffffffffffffffffffff16146105d2576040517f08c379a00000000000000000000000000000000000000000000000000000000081526004016105c990611211565b60405180910390fd5b8281600101819055508181600201819055503373ffffffffffffffffffffffffffffffffffffffff16847ffb7a2bfac98651d9cf07095e3384ab98279d7c7be39f2906497d0f1598cf653c858560405161062d92919061118b565b60405180910390a350505050565b60008060008060008060006001600089815260200190815260200160002090508060000160009054906101000a900473ffffffffffffffffffffffffffffffffffffffff1681600101548260020154836003015484600401548560050160009054906101000a900460ff169650965096509650965096505091939550919395565b600260009054906101000a900460ff161561070c576040517f08c379a0000000000000000000000000000000000000000000000000000000008152600401610703906113c2565b60405180910390fd5b6001600260006101000a81548160ff0219169083151502179055506000811161076a576040517f08c379a00000000000000000000000000000000000000000000000000000000081526004016107619061142e565b60405180910390fd5b600080600084815260200190815260200160002090508060030160009054906101000a900460ff166107d1576040517f08c379a00000000000000000000000000000000000000000000000000000000081526004016107c890611356565b60405180910390fd5b60006001600085815260200190815260200160002090508060050160009054906101000a900460ff161561083a576040517f08c379a00000000000000000000000000000000000000000000000000000000081526004016108319061149a565b60405180910390fd5b600083836001015461084c9190611260565b9050600083600201548261086091906112a2565b90508034146108a4576040517f08c379a000000000000000000000000000000000000000000000000000000000815260040161089b90611506565b60405180910390fd5b338360000160006101000a81548173ffffffffffffffffffffffffffffffffffffffff021916908373ffffffffffffffffffffffffffffffffffffffff1602179055508183600101819055508360020154836002018190555042836003018190555084836004018190555060018360050160006101000a81548160ff0219169083151502179055503373ffffffffffffffffffffffffffffffffffffffff16867f3d60079cdea55f2e780d557e4fdc3383b0e9d50de64f4791f1ddfb7cf03333c684876002015487600301548a6040516109819493929190611526565b60405180910390a3505050506000600260006101000a81548160ff0219169083151502179055505050565b60006020528060005260406000206000915090508060000160009054906101000a900473ffffffffffffffffffffffffffffffffffffffff16908060010154908060020154908060030160009054906101000a900460ff16905084565b600260009054906101000a900460ff1615610a59576040517f08c379a0000000000000000000000000000000000000000000000000000000008152600401610a50906113c2565b60405180910390fd5b6001600260006101000a81548160ff02191690831515021790555060006001600083815260200190815260200160002090508060050160009054906101000a900460ff16610adc576040517f08c379a0000000000000000000000000000000000000000000000000000000008152600401610ad3906115b7565b60405180910390fd5b6000620151808260040154610af19190611260565b8260030154610b0091906112a2565b905080421015610b45576040517f08c379a0000000000000000000000000000000000000000000000000000000008152600401610b3c90611623565b60405180910390fd5b60008260050160006101000a81548160ff02191690831515021790555060008260010154905060008360020154905060008460000160009054906101000a900473ffffffffffffffffffffffffffffffffffffffff169050600080600088815260200190815260200160002060000160009054906101000a900473ffffffffffffffffffffffffffffffffffffffff169050600086600101819055506000866002018190555060008660000160006101000a81548173ffffffffffffffffffffffffffffffffffffffff021916908373ffffffffffffffffffffffffffffffffffffffff16021790555060008660030181905550600086600401819055506000841115610cfa5760008173ffffffffffffffffffffffffffffffffffffffff1685604051610c7290611674565b60006040518083038185875af1925050503d8060008114610caf576040519150601f19603f3d011682016040523d82523d6000602084013e610cb4565b606091505b5050905080610cf8576040517f08c379a0000000000000000000000000000000000000000000000000000000008152600401610cef906116d5565b60405180910390fd5b505b6000831115610e005760008273ffffffffffffffffffffffffffffffffffffffff1684604051610d2990611674565b60006040518083038185875af1925050503d8060008114610d66576040519150601f19603f3d011682016040523d82523d6000602084013e610d6b565b606091505b5050905080610daf576040517f08c379a0000000000000000000000000000000000000000000000000000000008152600401610da690611741565b60405180910390fd5b8273ffffffffffffffffffffffffffffffffffffffff16887f7a482fdeb6bc9a1376f597068a214a7a39472bb2eff1b8cad21ba04f49ddca1b86604051610df6919061102e565b60405180910390a3505b8173ffffffffffffffffffffffffffffffffffffffff168173ffffffffffffffffffffffffffffffffffffffff16887f3dd4199a78c8ba9cc1613f281ddf7e8a8504e7225f5738f7cdc008cf8379ad13878742604051610e6293929190611761565b60405180910390a45050505050506000600260006101000a81548160ff02191690831515021790555050565b600080600080600080600087815260200190815260200160002090508060000160009054906101000a900473ffffffffffffffffffffffffffffffffffffffff16816001015482600201548360030160009054906101000a900460ff169450945094509450509193509193565b60016020528060005260406000206000915090508060000160009054906101000a900473ffffffffffffffffffffffffffffffffffffffff16908060010154908060020154908060030154908060040154908060050160009054906101000a900460ff16905086565b600080fd5b6000819050919050565b610f7c81610f69565b8114610f8757600080fd5b50565b600081359050610f9981610f73565b92915050565b600080600060608486031215610fb857610fb7610f64565b5b6000610fc686828701610f8a565b9350506020610fd786828701610f8a565b9250506040610fe886828701610f8a565b9150509250925092565b60006020828403121561100857611007610f64565b5b600061101684828501610f8a565b91505092915050565b61102881610f69565b82525050565b6000602082019050611043600083018461101f565b92915050565b600073ffffffffffffffffffffffffffffffffffffffff82169050919050565b600061107482611049565b9050919050565b61108481611069565b82525050565b60008115159050919050565b61109f8161108a565b82525050565b600060c0820190506110ba600083018961107b565b6110c7602083018861101f565b6110d4604083018761101f565b6110e1606083018661101f565b6110ee608083018561101f565b6110fb60a0830184611096565b979650505050505050565b6000806040838503121561111d5761111c610f64565b5b600061112b85828601610f8a565b925050602061113c85828601610f8a565b9150509250929050565b600060808201905061115b600083018761107b565b611168602083018661101f565b611175604083018561101f565b6111826060830184611096565b95945050505050565b60006040820190506111a0600083018561101f565b6111ad602083018461101f565b9392505050565b600082825260208201905092915050565b7f4e6f74206f776e65720000000000000000000000000000000000000000000000600082015250565b60006111fb6009836111b4565b9150611206826111c5565b602082019050919050565b6000602082019050818103600083015261122a816111ee565b9050919050565b7f4e487b7100000000000000000000000000000000000000000000000000000000600052601160045260246000fd5b600061126b82610f69565b915061127683610f69565b925082820261128481610f69565b9150828204841483151761129b5761129a611231565b5b5092915050565b60006112ad82610f69565b91506112b883610f69565b92508282019050808211156112d0576112cf611231565b5b92915050565b60006112e182610f69565b91506112ec83610f69565b925082820390508181111561130457611303611231565b5b92915050565b7f57617265686f757365206e6f7420726567697374657265640000000000000000600082015250565b60006113406018836111b4565b915061134b8261130a565b602082019050919050565b6000602082019050818103600083015261136f81611333565b9050919050565b7f5265656e7472616e740000000000000000000000000000000000000000000000600082015250565b60006113ac6009836111b4565b91506113b782611376565b602082019050919050565b600060208201905081810360008301526113db8161139f565b9050919050565b7f6475726174696f6e206d757374206265203e2030000000000000000000000000600082015250565b60006114186014836111b4565b9150611423826113e2565b602082019050919050565b600060208201905081810360008301526114478161140b565b9050919050565b7f416c72656164792072656e746564000000000000000000000000000000000000600082015250565b6000611484600e836111b4565b915061148f8261144e565b602082019050919050565b600060208201905081810360008301526114b381611477565b9050919050565b7f496e636f7272656374207061796d656e7420616d6f756e740000000000000000600082015250565b60006114f06018836111b4565b91506114fb826114ba565b602082019050919050565b6000602082019050818103600083015261151f816114e3565b9050919050565b600060808201905061153b600083018761101f565b611548602083018661101f565b611555604083018561101f565b611562606083018461101f565b95945050505050565b7f4e6f206163746976652072656e74616c00000000000000000000000000000000600082015250565b60006115a16010836111b4565b91506115ac8261156b565b602082019050919050565b600060208201905081810360008301526115d081611594565b9050919050565b7f4c65617365207374696c6c206163746976650000000000000000000000000000600082015250565b600061160d6012836111b4565b9150611618826115d7565b602082019050919050565b6000602082019050818103600083015261163c81611600565b9050919050565b600081905092915050565b50565b600061165e600083611643565b91506116698261164e565b600082019050919050565b600061167f82611651565b9150819050919050565b7f5061796d656e7420746f206f776e6572206661696c6564000000000000000000600082015250565b60006116bf6017836111b4565b91506116ca82611689565b602082019050919050565b600060208201905081810360008301526116ee816116b2565b9050919050565b7f526566756e6420746f2072656e746572206661696c6564000000000000000000600082015250565b600061172b6017836111b4565b9150611736826116f5565b602082019050919050565b6000602082019050818103600083015261175a8161171e565b9050919050565b6000606082019050611776600083018661101f565b611783602083018561101f565b611790604083018461101f565b94935050505056fea2646970667358221220271b806714be4d657123a621f07071b9a268b4e4c967fcdae557553aeecd57d164736f6c63430008180033",
  "linkReferences": {},
  "deployedLinkReferences": {}
}